{
  "_format": "hh-sol-artifact-1",
  "contractName": "chai",
  "sourceName": "contracts/Lock.sol",
  "abi": [
    {
      "inputs": [],
      "stateMutability": "nonpayable",
      "type": "constructor"
    },
    {
      "inputs": [
        {
          "internalType": "string",
          "name": "name",
          "type": "string"
        },
        {
          "internalType": "string",
          "name": "message",
          "type": "string"
        }
      ],
      "name": "buyChai",
      "outputs": [],
      "stateMutability": "payable",
      "type": "function"
    },
    {
      "inputs": [],
      "name": "getMemos",
      "outputs": [
        {
          "components": [
            {
              "internalType": "string",
              "name": "name",
              "type": "string"
            },
            {
              "internalType": "string",
              "name": "message",
              "type": "string"
            },
            {
              "internalType": "uint256",
              "name": "timestamp",
              "type": "uint256"
            },
            {
              "internalType": "address",
              "name": "from",
              "type": "address"
            }
          ],
          "internalType": "struct chai.Memo[]",
          "name": "",
          "type": "tuple[]"
        }
      ],
      "stateMutability": "view",
      "type": "function"
    }
  ],
  "bytecode": "0x608060405234801561001057600080fd5b50600180546001600160a01b03191633179055610729806100326000396000f3fe6080604052600436106100295760003560e01c80636a13d8591461002e578063865c517214610043575b600080fd5b61004161003c36600461044f565b61006e565b005b34801561004f57600080fd5b506100586101f9565b60405161006591906104f9565b60405180910390f35b600034116100dc576040517f08c379a000000000000000000000000000000000000000000000000000000000815260206004820152601860248201527f796f7520656e74657220696e76616c696420616d6f756e740000000000000000604482015260640160405180910390fd5b60015460405173ffffffffffffffffffffffffffffffffffffffff909116903480156108fc02916000818181858888f19350505050158015610122573d6000803e3d6000fd5b506040805160808101825283815260208101839052429181019190915233606082015260008054600181018255908052815160049091027f290decd9548b62a8d60345a988386fc84ba6bc95484008f6362f93160ef3e563019081906101889082610633565b506020820151600182019061019d9082610633565b5060408201516002820155606090910151600390910180547fffffffffffffffffffffffff00000000000000000000000000000000000000001673ffffffffffffffffffffffffffffffffffffffff9092169190911790555050565b60606000805480602002602001604051908101604052809291908181526020016000905b828210156103a35783829060005260206000209060040201604051806080016040529081600082018054610250906105aa565b80601f016020809104026020016040519081016040528092919081815260200182805461027c906105aa565b80156102c95780601f1061029e576101008083540402835291602001916102c9565b820191906000526020600020905b8154815290600101906020018083116102ac57829003601f168201915b505050505081526020016001820180546102e2906105aa565b80601f016020809104026020016040519081016040528092919081815260200182805461030e906105aa565b801561035b5780601f106103305761010080835404028352916020019161035b565b820191906000526020600020905b81548152906001019060200180831161033e57829003601f168201915b5050509183525050600282015460208083019190915260039092015473ffffffffffffffffffffffffffffffffffffffff16604090910152908252600192909201910161021d565b50505050905090565b634e487b7160e01b600052604160045260246000fd5b600082601f8301126103d357600080fd5b813567ffffffffffffffff808211156103ee576103ee6103ac565b604051601f8301601f19908116603f01168101908282118183101715610416576104166103ac565b8160405283815286602085880101111561042f57600080fd5b836020870160208301376000602085830101528094505050505092915050565b6000806040838503121561046257600080fd5b823567ffffffffffffffff8082111561047a57600080fd5b610486868387016103c2565b9350602085013591508082111561049c57600080fd5b506104a9858286016103c2565b9150509250929050565b6000815180845260005b818110156104d9576020818501810151868301820152016104bd565b506000602082860101526020601f19601f83011685010191505092915050565b60006020808301818452808551808352604092508286019150828160051b87010184880160005b8381101561059c57603f19898403018552815160808151818652610546828701826104b3565b915050888201518582038a87015261055e82826104b3565b838a0151878b015260609384015173ffffffffffffffffffffffffffffffffffffffff16939096019290925250509386019390860190600101610520565b509098975050505050505050565b600181811c908216806105be57607f821691505b6020821081036105de57634e487b7160e01b600052602260045260246000fd5b50919050565b601f82111561062e57600081815260208120601f850160051c8101602086101561060b5750805b601f850160051c820191505b8181101561062a57828155600101610617565b5050505b505050565b815167ffffffffffffffff81111561064d5761064d6103ac565b6106618161065b84546105aa565b846105e4565b602080601f831160018114610696576000841561067e5750858301515b600019600386901b1c1916600185901b17855561062a565b600085815260208120601f198616915b828110156106c5578886015182559484019460019091019084016106a6565b50858210156106e35787850151600019600388901b60f8161c191681555b5050505050600190811b0190555056fea26469706673582212204ac67209b56fcc2971987c16ce78023e98b4488f0ae7b4ffe713725e0ac712d064736f6c63430008130033",
  "linkReferences": {},
  "deployedLinkReferences": {}
}